:020000040800F2
:10000000B84E002061020008091E0008871A000887
:10001000211C000833080008E92300080000000044
:10002000000000000000000000000000A101000826
:100030003508000800000000FD0100086D1F0008E1
:100040007B0200087B0200087B0200087B0200089C
:100050007B0200087B0200087B0200087B0200088C
:100060007B0200087B0200087B0200087B0200087C
:100070007B0200087B0200087B0200087B0200086C
:100080007B0200087B0200087B0200087B0200085C
:100090007B0200087B0200087B0200087B0200084C
:1000A0007B0200087B0200087B0200087B0200083C
:1000B0002D2000087B0200087B0200087B0200085C
:1000C0007B0200087B0200087B0200087B0200081C
:1000D0007B0200087B020008DD2300087B02000889
:1000E0007B0200087B0200087B0200087B020008FC
:1000F0007B0200087B0200087B0200087B020008EC
:100100007B0200087B0200087B0200087B020008DB
:100110007B0200087B0200087B0200087B020008CB
:100120007B0200087B0200087B0200087B020008BB
:100130007B02000800000000000000007B020008B5
:100140007B0200087B0200087B0200087B0200089B
:100150007B0200087B0200087B0200087B0200088B
:100160007B0200087B0200087B0200087B0200087B
:100170007B0200087B020008000000000000000075
:100180007B0200087B020008DFF810D000F0D0FAF4
:1001900000480047752E0008AFF30080B84E0020DD
:1001A0002C4B19680868B0E8F04F80F30988BFF35A
:1001B0006F8F4FF0000080F311887047000000003F
:1001C00008480068006880F308884FF0000080F35A
:1001D000148862B661B6BFF34F8FBFF36F8F00DF35
:1001E00000BF00BF08ED00E0DFF80C00016841F43B
:1001F00070010160704700BF88ED00E0EFF30980F7
:10020000BFF36F8F134B1A681EF0100F08BF20ED5D
:10021000108A20E9F04F106009B44FF0500080F3CD
:100220001188BFF34F8FBFF36F8F03F011FD4FF0B5
:10023000000080F3118809BC19680868B0E8F04F25
:100240001EF0100F08BFB0EC108A80F30988BFF3CE
:100250006F8F70471C000020EFF30580704700008F
:100260000648804706480047FEE7FEE7FEE7FEE750
:10027000FEE7FEE7FEE7FEE7FEE7FEE71D200008DB
:10028000890100082DE9F05F0546002092469B4653
:1002900088460646814640241BE02846414647469C
:1002A000224600F07CF853465A46C01A914110D3BA
:1002B00011461846224600F063F82D1A67EB010834
:1002C0004F4622460120002100F05AF817EB0009A2
:1002D0004E41201EA4F10104DFDC484631462A4687
:1002E0004346BDE8F09F40EA01039B0703D009E0C5
:1002F00008C9121F08C0042AFAD203E011F8013B12
:1003000000F8013B521EF9D27047D2B201E000F86A
:10031000012B491EFBD270470022F6E710B51346A9
:100320000A4604461946FFF7F0FF204610BD00F0CC
:10033000004230F000400AD0C10D01F56071C0F3F9
:10034000160042EA0151C2084007114370470020DD
:100350000146704730B50B4601460020202201249B
:1003600009E021FA02F59D4205D303FA02F5491B83
:1003700004FA02F52844151EA2F10102F1DC30BD99
:10038000202A04DB203A00FA02F100207047914055
:10039000C2F1200320FA03F3194390407047202A4A
:1003A00004DB203A21FA02F00021704721FA02F31F
:1003B000D040C2F1200291400843194670472DE910
:1003C000FE4F804681EA0300C00F0C46009021F0EA
:1003D000004123F00045B8EB0200A94105D2404698
:1003E000214690461C460B46024623F0004010432F
:1003F00047D0270DC7F30A00C3F30A510290401AF1
:10040000019040286BDAC3F3130040F4801B00987E
:10041000924620B10023D2EB030A63EB0B0B019849
:100420005946C0F140025046FFF7AAFF06460D4666
:1004300050465946019A00F08DF910EB08006141D1
:10044000002487EA115284EAE7731A4340D0009AE5
:1004500062B3019A012A4FEA075215DC001B61EBD7
:1004600002014FF0004202EA0752CDE90042001CAF
:1004700041F5801132462B4600F08DF903B0BDE8FE
:10048000F08F40462146F9E7001B61EB0201001C9A
:1004900041F5801300185B412018A2F5001747EBC7
:1004A000030140EAD570B6196D4111E06D084FEABD
:1004B000360645EAC0754FEA0752001B61EB0201A0
:1004C000001C41F5801149084FEA300000195141E4
:1004D00032462B4603B0BDE8F04F00F04DB900980E
:1004E000012240000023D0EB020263EBE07300988E
:1004F00021464FEAE074B8EB000061EB0401E9E744
:1005000083F000435BE781F0004158E72DE9FE4F9F
:1005100081EA030404F0004421F0004100944FF00C
:10052000000B23F0004350EA01045ED052EA0304BA
:100530005BD0C3F30A54C1F30A552C44A4F2F3343C
:100540000194A0FB0254C1F3130141F48011C3F3E1
:10055000130343F4801301FB024400FB034E840A9F
:10056000970A44EA815447EA8357A4FB0768029537
:100570008D0A05FB07854FEA932C04FB0C542705D5
:10058000029D4FEA065847EA1637B5EB08056EEBB1
:10059000070C870E920E47EA811742EA8312A7FBE7
:1005A0000201B6EB0B0164EB00042B0D43EA0C33A4
:1005B0005E1844EB1C50DA465146E7FB0201C5F3D6
:1005C00013044FEA0B3343EA14534FEA0432019CFD
:1005D00043EA0603A4F10C040294009CCDE900B4A4
:1005E00000F0D9F803B0BDE8F08F00200146F9E72C
:1005F0002DE9F04D81EA030404F0004B21F00045A1
:1006000014464FF0000A23F0004150EA050220D0C2
:1006100054EA01021DD0C5F30A570246C5F313037D
:10062000C1F31300C1F30A5640F4801543F480135C
:10063000A7EB0608101BD64608F2FD3873EB050041
:1006400002D308F1010801E092185B41B8F1000FF4
:1006500003DA00200146BDE8F08D00204FF4801140
:10066000064684460EE0171B73EB050705D3121BE5
:1006700063EB050306434CEA010C49084FEA3000DE
:1006800092185B4150EA0107EDD152EA030012D003
:1006900082EA040083EA0501084305D0101BAB4140
:1006A00006D20122002306E000224FF0004302E0C0
:1006B0006FF0010253101AEB06004CEB085110EBDF
:1006C0000A0041EB0B01BDE8F04D00F055B8C1F355
:1006D0000A52C1F3130140F2FF3341F480119A42F0
:1006E00002DA00200146704740F233439A42A2F2F8
:1006F000334202DC5242FFF752BEFFF741BE000018
:1007000030B5041E71F1000404DB4FF00044404298
:1007100064EB0101141E73F1000405DB1C464FF06D
:100720000043524263EB0403994208BF904230BD3C
:10073000064C074D06E0E06840F0010394E807002E
:1007400098471034AC42F6D3FFF722FDF446000878
:1007500014470008202A06DBCB17203A41FA02F0A2
:1007600043EAE07306E041FA02F3D040C2F120020E
:10077000914008431946704710B5141E73F10004E8
:1007800008DA401C41F1000192185B411A4301D183
:1007900020F0010010BD2DE9F04D92469B4611B1AD
:1007A000B1FA81F202E0B0FA80F220329046FFF70F
:1007B000E7FD04460F4640EA0A0041EA0B015346B2
:1007C0005A46084313D0114653EA010019D0C8F124
:1007D00040025046FFF7E3FD05460E465046594697
:1007E0004246FFF7CDFD084305D0012004E0204636
:1007F0003946BDE8F08D0020054346EAE0762C43FB
:1008000037430A986305E40AA0EB08000022FD0ABA
:1008100044EA47540A3002D500200146E9E70105C1
:1008200010196941DDE9084500196941BDE8F04D3D
:10083000A2E7FEE7704772B6FEE7000070B501223E
:10084000074D14022146284600F072F9052002F0F7
:1008500037FB21462846BDE87040002200F068B909
:10086000000002402DE9F0410446876D00F066F972
:10087000064694F835000025022806D080206065E1
:1008800084F834500120BDE8F0812068016821F02F
:10089000160101602068416921F080014161206CEE
:1008A00008B9A06C20B12068016821F0080101603E
:1008B0002068016821F0010101600CE000F03EF9C0
:1008C000801B052807D920206065032084F83500A7
:1008D00084F83450D7E720680068C007EED194F858
:1008E0005C103F208840B860012084F8350084F80F
:1008F00034500020C7E790F83510022903D080213A
:10090000416501207047052180F8351000680168B5
:1009100021F00101016000207047000070B504461D
:1009200000F00CF90546601C02D00448007804442D
:1009300000F004F9401BA042FAD370BD0C00002067
:100940002DE9F84FDFF8BCA10022012503264FF066
:100950000F090AF1040BAAF1040E00BF0B6805FA97
:1009600002F42340A34270D10F7907F00307012F4F
:1009700001D0022F16D187684FEA420806FA08FC18
:1009800027EA0C07D1F80CC00CFA08FC4CEA070C5B
:10099000C0F808C04768A7430C79C4F3001494401A
:1009A0003C4344600C79E443A4070AD0C4684FEA8E
:1009B000420C06FA0CF7BC438F6807FA0CF7274382
:1009C000C7600C7904F00304022C12D1D40800EBA8
:1009D000840CDCF820405707FF0E09FA07F824EAD8
:1009E0000804D1F8108008FA07F848EA0408CCF89F
:1009F000208004684FEA420C06FA0CF7BC430F79DA
:100A000007F0030707FA0CF7274307604C6814F454
:100A1000403F70D03C4C276847F4804727602468EB
:100A200022F0030704F480440094384C07EB040CD4
:100A3000DCF8084897074FEA177809FA08F7BC432B
:100A4000334FB84202D1002724E054E0314FB8427E
:100A500001D101271EE0304FB84201D1022719E031
:100A60002E4FB84201D1032714E02D4FB84201D1D7
:100A700004270FE02B4FB84201D105270AE02A4F87
:100A8000B84201D1062705E0284FB84201D1072717
:100A900000E0082707FA08F72743CCF80878DAF8C7
:100AA00000405746D1F804C09C435FEACC2C00D5E7
:100AB0001C433C60DBF800405F46D1F804C09C4317
:100AC0005FEA8C2C00D51C433C60DEF80040774682
:100AD000D1F804C09C435FEA8C3C00D51C433C60C9
:100AE000084F083F3C68D1F804C09C435FEACC3C07
:100AF00000D51C433C60521C102AFFF42FAFBDE808
:100B0000F88F0000083C01404438024000300140AA
:100B1000000002400004024000080240000C0240B5
:100B2000001002400014024000180240001C024065
:100B30000AB1816170470904FBE700000148806841
:100B4000704700000C0000200248816802781144C0
:100B5000816070470C0000200B4810B5016841F41B
:100B600000710160016841F480610160016841F435
:100B700080710160032000F09FF80F2000F006F85C
:100B800000F050F8002010BD003C024030B5054692
:100B9000204887B00024016841F00101016000682D
:100BA00006A900F00100009001A800F031F90498B6
:100BB000B0B100F04DF9400017494FF08042B0FB52
:100BC000F1F11648491E026040F2E732C0E9032401
:100BD000C0E90114846100F043FB040003D015E078
:100BE00000F036F9E8E70D4800F068FB04000DD18D
:100BF0001C2000F033F8102D07D2002229461C20BB
:100C000000F03AF80648056000E0012407B02046ED
:100C100030BD00004038024040420F0098010020E3
:100C2000100000200C4882B0016841F4804101604E
:100C3000006800F4804000900748001F016841F000
:100C4000805101600068002200F0805000900F2168
:100C5000901E02B000F010B844380240002809DBB2
:100C600000F01F02012191404009800000F1E020C6
:100C7000C0F8001170470000F0B40E4B1B680C4622
:100C8000C3F30223C3F10705042D00D90425191D60
:100C9000072901D2002300E0DB1E012606FA05F138
:100CA000491E214099409E40761E16403143F0BCBB
:100CB00001F06EBC0CED00E0064900F00702086888
:100CC0004FF6FF03184040EA0220034A1043086031
:100CD000704700000CED00E00000FA052DE9F04738
:100CE0000E46050065D0DFF81481D8F80000F7B291
:100CF00000F00700B04207D288F80070D8F8000072
:100D000000F00700B04254D128683D4C810712D54D
:100D1000400703D5206840F4E050206028780007A1
:100D200003D5206840F4604020602068A96820F066
:100D3000F000084320602878C0072DD0304968684B
:100D40000839012812D0022813D0032811D00968CD
:100D5000890700292DDA216821F003010143216070
:100D6000FFF7ECFE814641F2883A0EE009688903FC
:100D7000EFE709688901ECE7FFF7E0FEA0EB090166
:100D8000514502D90320BDE8F0872068696800F06A
:100D90000C00B0EB810FEFD1D8F80010404601F005
:100DA0000701B14207D90770006800F00700B042A0
:100DB00001D00120E7E72878400705D52068E968D9
:100DC00020F4E050084320602878000706D520680A
:100DD000296920F4604040EAC100206000F058F822
:100DE0002168084AC1F30311515CC84006490860F4
:100DF00006480068FFF7CAFE0020C4E7003C024036
:100E000008380240D04600081800002010000020DA
:100E10000F2202600C4A136803F003034360136857
:100E200003F0F0038360136803F4E053C3601268B7
:100E30004FF4E05303EAD20202610448006800F074
:100E4000070008607047000008380240003C02407C
:100E50000448054900680968044AC1F38221515CCD
:100E6000C84070471800002008380240E0460008DB
:100E70000448054900680968044AC1F34231515CDD
:100E8000C84070471800002008380240E0460008BB
:100E9000154810B5006810F00C02144813D041102A
:100EA000042A0FD0082A0ED10F4C241F2268236871
:100EB00002F03F025B0207D52068C0F38810A0FB58
:100EC000010106E0084610BD2168C1F38811A1FBAD
:100ED00000010023FFF7D6F92168C1F30141491C45
:100EE0004900B0FBF1F010BD083802400024F400C6
:100EF0002DE9F84F04006ED02078DFF84C93C0073E
:100F0000A9F104054AD009F104000168C1F3810187
:100F1000012908D00068C0F3810002280AD1D9F85D
:100F20000000400206D52868800337D56068002895
:100F3000E1D033E06068B0F5803F10D0B0F5A02F6D
:100F4000286810D020F480302860286820F48020A1
:100F500028606068A8B1FFF7F1FD06460DE028683B
:100F600040F48030F4E740F480202860F7E700BFC9
:100F7000FFF7E4FD801B642873D828688003F7D549
:100F80000CE0FFF7DBFD064605E000BFFFF7D6FDEE
:100F9000801B6428F0D828688003F7D42078DFF815
:100FA000AC8280074FF0000A3ED5A748001D0168BB
:100FB00011F00C0F08D00068C0F3810002280BD19B
:100FC000D9F80000400207D42868800716D5E068E9
:100FD000012800D112E033E1E068B8B10120C8F87F
:100FE0000000FFF7ABFD064605E000BFFFF7A6FDDA
:100FF000801B0228C0D828688007F7D52868216997
:1010000020F0F80040EAC10028600DE0C8F800A018
:10101000FFF794FD064604E0FFF790FD801B0228D1
:101020001FD828688007F7D42078000722D5864F7C
:1010300087486169703771B101210160FFF77EFD5A
:10104000064604E0FFF77AFD801B022809D83868BD
:101050008007F7D50EE0C0F800A0FFF76FFD064649
:1010600005E082E0FFF76AFD801B02287DD8386822
:101070008007F7D42078400768D5DFF8CCB1002787
:101080000BF13C0BDBF80000C0000BD4DBF80010C8
:1010900041F08051CBF80010DBF80000012700F090
:1010A000805000906B4E3068C00510D4306840F41A
:1010B00080703060FFF742FD009005E0FFF73EFDD5
:1010C0000099401A022850D83068C005F6D55E4E07
:1010D000A0686C3601280FD00528306810D020F0A9
:1010E00001003060306820F004003060A068B8B1C2
:1010F000FFF724FD00900FE0306840F00100F4E7B6
:1011000040F004003060F7E7FFF718FD0099411A3E
:1011100041F28830814266D830688007F4D50EE00D
:10112000FFF70CFD009007E0FFF708FD0099411A5A
:1011300041F28830814256D830688007F4D42FB10C
:10114000DBF8001021F08051CBF80010A069C8B383
:101150003D49091D0968C1F3810102294AD00228CD
:10116000504607D0C8F8600000E03CE0FFF7E6FC1E
:1011700004463BE04746C8F86000FFF7DFFC064640
:1011800005E000BFFFF7DAFC801B02282BD8286897
:101190008001F7D4D4E907010843A16A2E4A49081F
:1011A00002EB0141626A41EA8211084394F82C1073
:1011B00040EA0161C9F8001001203866FFF7BEFC63
:1011C000044606E03EE000BFFFF7B8FC001B022823
:1011D00009D828688001F7D534E000BFFFF7AEFCDE
:1011E000001B022802D90320BDE8F88F286880017F
:1011F000F4D427E00128F7D0D9F80000E26900F420
:10120000800191421CD1226A00F03F01914217D126
:1012100047F6C071626A0140B1EB821F10D1A26A29
:101220004FF0FF3300F4403103EB5202B1EB024FB9
:1012300006D194F82C1000F07060B0EB016F01D073
:101240000120D1E70020CFE70438024000004742E8
:10125000800E4742007000400000FFFF704770475B
:1012600010B5040003D094F83D0010B107E0012050
:1012700010BD002084F83C00204600F01EF802203B
:1012800084F83D00211D206800F0D6FE012084F87E
:10129000460084F83E0084F83F0084F8400084F85B
:1012A000410084F8420084F8430084F8440084F844
:1012B000450084F83D00002010BD704790F83D10B7
:1012C000012901D001207047022180F83D100168FA
:1012D000CA6842F00102CA6000681149884214D00D
:1012E000B0F1804F11D00F4988420ED00E4988428C
:1012F0000BD00E49884208D00D49884205D00D49CF
:10130000884202D00C49884204D1816801F007016B
:10131000062903D0016841F00101016000207047F7
:10132000000001400004004000080040000C0040A4
:1013300000040140004001400018004070472DE9C2
:10134000F04104460068C66805694FF00007A90728
:1013500013D5B10711D5F91E01610120207720684E
:1013600080698007204602D0FFF7E8FF04E000F024
:101370007EF8204600F07CF82777680716D57007BE
:1013800014D521686FF004000861022020772068DE
:10139000806910F4407F204602D0FFF7CFFF04E0C1
:1013A00000F065F8204600F063F82777280715D588
:1013B000300713D521686FF00800086104202077FA
:1013C0002068C0698007204602D0FFF7B7FF04E01D
:1013D00000F04DF8204600F04BF82777E80616D5C8
:1013E000F00614D521686FF01000086108202077FE
:1013F0002068C06910F4407F204602D0FFF79EFFAE
:1014000004E000F034F8204600F032F82777E807CF
:1014100008D0F00706D021686FF00100086120466F
:1014200000F027F8280608D5300606D521686FF0A9
:10143000800008612046FFF711FF680608D5700696
:1014400006D521686FF040000861204600F018F8CA
:10145000A8060AD5B00608D521686FF020000861FB
:101460002046BDE8F041FFF7FABEBDE8F0817047C5
:1014700070470068B0F1804F01D1FFF765BB70473E
:101480007047704770470000F8B501680446086867
:10149000CA684B6910F00F0F4FF0000559D003F0E8
:1014A000010602F49077374365D0C10705D0D10516
:1014B00003D5616C41F001016164410705D5D9078D
:1014C00003D0616C41F002016164810705D5D90741
:1014D00003D0616C41F004016164010707D502F09B
:1014E0002001314303D0616C41F008016164616CFB
:1014F00000293AD0800604D5900602D5204600F097
:1015000031FE20684069616CC0F38010090700D487
:1015100060B3204600F0FFFD20684069400621D5F9
:101520002068143050E8001F21F0400140E800120C
:10153000002AF5D1E06BA8B172490165E06BFFF7B5
:10154000DAF9002811D0E06B016D01B0BDE8F04080
:10155000084783060FD593060DD52046BDE8F84011
:1015600000F000BE2046FFF78DFFF8BD2046FFF7D4
:1015700089FF6564F8BD266B2023012E7ED1C60647
:101580007CD5D6067AD508684868009048694FF03F
:10159000020640064DD5E26B106840684FF4807734
:1015A0000004000C3AD0A18D814237D9E085D06982
:1015B000B8422DD020680C3050E8001F21F4807113
:1015C00040E80012002AF5D12068143050E8001FCE
:1015D00021F0010140E80012002AF5D12068143002
:1015E00050E8001F21F0400140E80012002AF5D128
:1015F00084F84230256320680C3050E8001F21F049
:10160000100140E80012002AF5D1E06BFFF72AF93B
:101610006663A08DE18D401A81B206E0A18D814202
:10162000A8D1D069B842A5D166632046FFF729FF4B
:10163000F8BDA08DE18D401A81B2E08D0028F7D071
:101640000029F5D020680C3050E8002F22F4907269
:1016500040E80027002FF5D12068143050E8002F13
:1016600022F0010240E80027002FF5D184F8423033
:10167000256320680C3050E8002F00E006E022F0DF
:10168000100240E80023002BF3D1CDE705062BD54F
:10169000150629D594F841002128C9D1A068B0F5D4
:1016A000805F01D12069B0B1206A411C21622168AC
:1016B00000784860E08C401E0004000CE084B7D144
:1016C0002068C16821F08001C1602068C16841F0D4
:1016D0004001C160F8BD206A0088C0F3080048607E
:1016E000206A801C2062E5E74006F3D55006F1D55C
:1016F000CA68204622F04002CA6084F8413000F0F7
:10170000C1F9F8BD0921000870B5040004D094F8AF
:101710004100002510B106E0012070BD84F8405062
:10172000204600F023F8242084F841002068C16896
:1017300021F40051C160204600F076FD2068016967
:1017400021F4904101612068416921F02A01416141
:101750002068C16841F40051C1606564202084F8AC
:10176000410084F842006563002070BDF0B587B089
:10177000044614216846FEF7CFFD364B2768002249
:10178000354902240325072634489F4219D1324B9C
:1017900014331F6847F010071F601B6803F0100325
:1017A00005930B6843F001030B60096802AB01F07D
:1017B000010105916902CDE9001483E864006946DE
:1017C00044E0254BDFF898C01033674522D11F68ED
:1017D00047F400371F601B6803F4003305930B6860
:1017E00043F001030B60096802AF01F001010591AC
:1017F0000C21CDE9001487E864006946FFF7A0F8E2
:10180000002211462620FFF737FA2620FFF726FA96
:1018100007B0F0BD13488742FAD1186840F4802021
:101820001860186800F480200590086840F00400F3
:101830000860086802AF00F0040005904FF44060B3
:10184000CDE9000487E8640069460748FFF778F8A7
:10185000DEE7000000100140303802400000024086
:101860000044004000480040000802402DE9F84FC5
:10187000044690F842009A4616460D46202802D0AB
:101880000220BDE8F88FB5B1AEB10020606422211E
:1018900084F842102063FFF751F9A6858146E6855A
:1018A000A0684FF480582027404501D1206920B11D
:1018B0002E46002529E00120E3E7002625E04B46DF
:1018C000002220212046CDF800A000F04EFD18B1E6
:1018D00084F842700320D4E726B1A06840451AD0AE
:1018E00038B108E020684068C0F3080025F8020B12
:1018F00008E0206978B12068406800F07F0000BFF0
:1019000006F8010BE08D401EE085E08D0028D6D161
:1019100084F84270B5E720684068F1E790F84230FB
:10192000202B01D00220704721B11AB1002303639C
:1019300000F000BD01207047F0B5274991B0884202
:1019400048D10621254800F06CF92449CA88904204
:1019500038D10878012835D14878032832D1488811
:1019600042BA888844BA101910282BD801208DF863
:10197000000003238DF8013060008DF80200002084
:101980006D46174E0AE0111805EB400736F81110A6
:10199000401C4FEA112C87F803C03971A042F2DBDA
:1019A00003EB440081B2284600F03BF905EB44010B
:1019B000C870000A0871052000EB440081B2684637
:1019C00000F024FA11B00822BDE8F04003490248B3
:1019D000FFF7A4BF11B0F0BD0801002000000020F7
:1019E000A00000202DE9F843044690F841009846F5
:1019F00016460D46202802D00220BDE8F88385B1A6
:101A00007EB100206064212084F84100FFF796F841
:101A1000A6848146E684A0682027B0F5805F02D0C6
:101A200003E00120E9E7206910B12E4600250EE011
:101A300000260CE08021204600F097FCA8B9C6B132
:101A400016F8010B21684860E08C401EE084E08CB1
:101A50004B464FF00002CDF800800028EAD14FF04D
:101A60004001204600F081FC40B184F84170032021
:101A7000C3E735F8020BC0F30800E3E784F84170D0
:101A80000020BAE77047FEE710B5044A0021044879
:101A900001F062FA0349086010BD0000AC4600087E
:101AA000591E0008080000202DE9F04786B01421D7
:101AB0006846FEF731FC2C480024016841F004011F
:101AC0000160016801F004010591016841F08001A5
:101AD0000160016801F080010591016841F0010198
:101AE0000160016801F001010591016841F0020106
:101AF00001600068DFF8748000F002004FF4F975AF
:101B00000590002229464046FFF712F8DFF8609062
:101B1000002230214846FFF70BF8DFF858A04FF4B9
:101B20004067002239465046FFF702F8022600952A
:101B3000CDE902640125694640460195FEF700FFA4
:101B4000302003948DE8610069464846FEF7F8FEB0
:101B5000CDE90264CDE9007569465046FEF7F0FE16
:101B600006B0BDE8F08700003038024000000240B7
:101B700000080240000402400C4810B50A49016008
:101B80004FF4E1314160002181600C22C160C0E965
:101B900004128161C161FFF7B7FD002803D0BDE8E1
:101BA0001040FEF748BE10BD00100140C0000020EC
:101BB0000C4810B50A4901604FF4E1314160002141
:101BC00081600C22C160C0E904128161C161FFF72C
:101BD0009BFD002803D0BDE81040FEF72CBE10BDD1
:101BE00000440040080100200C4810B50A4901607B
:101BF0004FF416514160002181600C22C160C0E9A0
:101C000004128161C161FFF77FFD002803D0BDE8A8
:101C10001040FEF710BE10BD0048004050010020EB
:101C2000FEE770B505464FF6FF7000224AF2010448
:101C30000DE0AB5C58400023C6074FEA500000D0CF
:101C400060405B1CDBB2082BF6D3521C92B28A4276
:101C5000EFD370BD2DE9F04794B00D4601218DF80A
:101C6000401003218DF84110010A8DF842108DF8C3
:101C70004300280A8DF84400984692468DF8455056
:101C8000062110A8FFF7CDFF8DF84600000A8DF859
:101C9000470001231A4612A92648FFF7E7FD00284E
:101CA000F7D06423082210A92248FFF79BFE0520E5
:101CB00000EB450086B240216846FEF72DFB00246C
:101CC000FEF73CFF0746E9460CE000BF09EB0401C4
:101CD0000A2301221748FFF7C9FD18B9641CA4B2F2
:101CE000B44204D2FEF72AFFC11B4145EED3B442F1
:101CF00012D1B01E81B26846FFF793FF09EB0602CE
:101D000032F8022C904207D19DF80000012803D13F
:101D10009DF80100032804D04FF0FF3014B0BDE857
:101D2000F0876A0009F103015046FEF7DCFA002053
:101D3000F4E7000050010020082202490248FFF7A2
:101D4000EDBD00000000002008010020F0B587B0C4
:101D500001228DF80C2006228DF80D20020A8DF844
:101D60000E208DF80F00080A8DF810008DF8111064
:101D7000062103A8FFF755FF8DF81200000A8DF821
:101D8000130001231A4606A91E48FFF76FFD00281D
:101D9000F7D06423082203A91A48FFF723FE002086
:101DA000019004460290FEF7C9FE054601AE4FF4CD
:101DB000FA770AE031190A2301221248FFF756FD8B
:101DC00018B9641CA4B2082C04D2FEF7B7FE401B5D
:101DD000B842EFD3082C0FD1062101A8FFF721FF4D
:101DE000BDF80A10884207D19DF80400012803D1EC
:101DF0009DF80500062803D04FF0FF3007B0F0BD76
:101E00000020FBE750010020FEE70000F8B5104C71
:101E10000D460646012202212046FEF789FE0020DB
:101E2000009041F2883000BF0099491C0091814226
:101E3000F9DB4FF47A732A4631460648FFF7D2FDA4
:101E40002046BDE8F84000220221FEF771BE0000E6
:101E500000000240080100202DED028B9FED278A33
:101E6000274F84B05FF001048DED028A8DED038A67
:101E700003AA02A9204600F0CDFA00263546A8B1F3
:101E8000214620A000F074FB6000801E80B227F87D
:101E9000106007EB40004580642001F011F8FEF768
:101EA000CDFC641CE4B2082CDED9DBE70398FEF716
:101EB0003EFA05460E460298FEF739FA41EC100B41
:101EC000CDE9005653EC102B21461AA000F050FB30
:101ED000DDED020AB2EE040A60EE800AFCEEE00AD2
:101EE00010EE900ADDED030A86B220EE800ABDEE08
:101EF000C00A10EE100A85B2C6E70000000000001C
:101F0000A00000205B4672656552544F535D20432C
:101F100068616E6E656C2025643A205265616420AC
:101F200054696D656F7574206F72204572726F729F
:101F3000210D0A005B4672656552544F535D204384
:101F400068616E6E656C2025643A2046726571206A
:101F50003D20252E326620487A2C2054656D702055
:101F60003D20252E316620430D0A000010B54FF0AC
:101F7000E020006902F0E4F9012803D0BDE8104038
:101F800001F012BF10BD000030B593B0302168469B
:101F9000FEF7C2F914210CA8FEF7BEF91D48002572
:101FA000016841F080510160006800F0805011909C
:101FB0001948016841F4804101600068022400F47E
:101FC0008040119001200090000401908001CDE933
:101FD000064008AA0420A82182E813000B90684656
:101FE000FEF786FF08B172B6FEE70CA90F2081E864
:101FF00031004FF4A0500F904FF480501090052105
:102000000CA8FEF76BFE002801D072B6FEE713B0F5
:1020100030BD0000403802400070004002480168B6
:1020200041F470010160704788ED00E00148FFF75E
:1020300086B9000098010020F0B50268274B284DB2
:10204000284E294F294C4FF0804C984209D06045CA
:1020500007D0A84205D0B04203D0B84201D0A04278
:1020600004D122F0700E4A6842EA0E0298421BD058
:10207000604519D0A84217D0B04215D0B84213D04D
:10208000A04211D01A4DA8420ED01A4DA8420BD032
:10209000194DA84208D0194DA84205D0184DA842A4
:1020A00002D0184DA84203D122F44075CA682A43D1
:1020B0004D6922F080022A438D68C5620D688562F1
:1020C000984201D0A04201D109690163016841F041
:1020D00004010160012141610260F0BD0000014086
:1020E0000004004000080040000C004000040140D3
:1020F00000400140004401400048014000180040F9
:10210000001C00400020004010B5806B0021C185FC
:10211000FFF7B8F910BD01680C3151E8002F22F427
:10212000907241E80023002BF5D10168143151E889
:10213000002F22F0010241E80023002BF5D1016BB2
:10214000012909D101680C3151E8002F22F0100259
:1021500041E80023002BF5D1202180F84210002116
:102160000163704708B590F84210222901D002207F
:1021700008BD82684FF480539A4201D1016921B1B0
:10218000816A9A421BD04AB10AE00268816A5268A9
:10219000C2F308020A80816A891C08E0026972B1F0
:1021A0000268526802F07F020A70816A491C8162EB
:1021B000C18D491E0904090CC18503D01BE00268CA
:1021C0005268F1E70168CA6822F02002CA6001681B
:1021D000CA6822F48072CA6001684A6922F001026A
:1021E0004A61202180F8421000214163026B012ADC
:1021F00003D0FFF7A1FB002008BD016301680C318B
:1022000051E8002F22F0100241E80023002BF5D105
:1022100001680A68D20602D50A6849680091818D72
:10222000FFF72FF9E7E7000070B504460068016981
:10223000E26821F44051114301612169A068E2691B
:1022400008436169114308432168CA6849F20C6375
:102250009A430243CA6020684169A26921F440712F
:102260001143416131492068884202D03049884297
:1022700002D1FEF7FDFD01E0FEF7EAFDE269002371
:10228000192164253226B2F5004F626828D0A0FBE0
:102290000101930F9200FDF7F5FF0146B0FBF5F049
:1022A0006FF01802504301EB800006EB0010B0FB0A
:1022B000F5F000F0F002B1FBF5F002EB0012B1FB1B
:1022C000F5F06FF01803584301EB800006EB0010A7
:1022D000B0FBF5F000F00F0021681044886070BD7D
:1022E000A0FB010192185B41FDF7CCFF0146B0FB5A
:1022F000F5F00201B1FBF5F06FF01803584301EB64
:10230000800006EBC000B0FBF5F000F0F80002EB37
:102310004002B1FBF5F0584301EB800006EBC00032
:10232000B0FBF5F000F00700D6E700000010014018
:102330000014014081628285C2850021416422210E
:1023400080F84210016921B10168CA6842F48072C4
:10235000CA6001684A6942F001024A610068C168C6
:1023600041F02001C160002070472DE9F8439846F4
:1023700017460D460446089E24E0701C22D0FEF746
:10238000DDFBA0EB0800B0421AD8CEB12068C168CE
:10239000490717D5802D15D0402D13D00168C943AA
:1023A00009070FD401680025406800902046FFF718
:1023B000B2FE0820606484F840500120BDE8F88334
:1023C0000320FBE72068006835EA000004D0002005
:1023D000B842D2D00020F1E70120F9E70148FFF729
:1023E00053B8000008010020FEE710B5012000F0FE
:1023F00053F801210520FFF7A9FC3220FEF78EFAE1
:1024000000210720FFF7A2FC3220FEF787FA002008
:1024100010BD00007FB50C46411E1546072901D8A6
:1024200000F03AF800F05AFD42F210710228084616
:102430000BD0FEF773FA00BF4FF47A736A46072198
:102440002320FFF707FC18B122E000F039FDF3E785
:10245000BDF80000F2EE040A40BA00EE100ABDF822
:102460000C10B8EE400A49BA09B280EE201A00EE0C
:10247000101AB8EEC00A84ED001A80EE201A85ED1D
:10248000001A2068B0F17E5F02DD002004B070BD4C
:102490004FF0FF30FAE700002DE9F047314D0446D8
:1024A000002210212846FEF743FB00222021284667
:1024B000FEF73EFB002240212846FEF739FB0022B2
:1024C00080212846FEF734FB274E0022102130469B
:1024D000FEF72EFB002220213046FEF729FB234F7A
:1024E0004FF48068002241463846FEF721FB4FF446
:1024F0000069002249463846FEF71AFB092C0FD224
:10250000DFE804F00E0508181B1F22252800012211
:10251000494601E0012241464FEA0700FEF708FB69
:1025200000F0DCFC02284FF0320017D0BDE8F04785
:10253000FEF7F4B90122202101E0012210213046EA
:10254000ECE70122802107E00122402104E0012282
:10255000202101E0012210212846DFE7BDE8F047F5
:1025600000F0AEBC0000024000080240000402403F
:102570000FB4054B10B503A9044A029800F0EAF81D
:1025800010BC5DF814FB00005D2E00089C000020CC
:102590000907090E002804DB00F1E02080F8001490
:1025A000704700F00F0000F1E02080F8141D704724
:1025B00002E008C8121F08C1002AFAD1704770470C
:1025C000002001E001C1121F002AFBD1704700006A
:1025D0002DE9FF5F82B00021DDE90430020DDDF856
:1025E00040B0034318D044F61050A2F2FF324243E9
:1025F0001514119801281FD0A5EB0B00401C5FEAB1
:10260000000A4FF000064E4FDFF83891B0465046B2
:1026100015D5CAF1000413E0119801244AA301283A
:1026200001D16FEA0B010298119AC0E90031C0E9AB
:10263000024206B0BDE8F09FCBF10000DFE70446A0
:102640000021404A491842EB0450CDE9001012E045
:10265000E00707D032463B4640464946FDF756FF65
:102660008046894632463B4610461946FDF74EFFE6
:1026700006460F466410002CEAD1DDE90401DDE9CD
:102680000023BAF1000F06DAFDF740FF42464B4641
:10269000FDF73CFF05E0FDF7ABFF42464B46FDF77B
:1026A000A7FF04460E460022284BFEF729F803D860
:1026B0004FF0FF30014607E00022254B204631460F
:1026C000FDF77DFEFEF703F8102409E0002C0ADB7D
:1026D0000A220023FDF7D6FD039B30321A55641EF3
:1026E00050EA0102F2D1641C039AC4F111031444AC
:1026F000119A012A03D0012208430DD10AE00843B0
:1027000004D000204FF0110B119072E7A3EB0B05E2
:102710006D1E0DE05B4504DD4FF0000205F1010583
:1027200004E003DA4FF00002A5F10105002AECD025
:1027300002981199C0E90231C0E9004579E700002B
:10274000000014400000F03F300000000000F043A3
:102750000000E03F2DE9FF4F95B09A4688460646B7
:102760000025EEE1252877D100242746F94A0121EA
:10277000039400E0044316F8013F203B01FA03F004
:102780001042F7D130782A2811D06FF02F0330781B
:10279000A0F13002092A16D8039A44F0020402EB91
:1027A000820203EB42021044761C0390EFE758F8D4
:1027B000042B0392002A03DA504244F4005403909D
:1027C00044F00204761C30782E2816D116F8010F3A
:1027D00044F004042A280DD06FF02F023078A0F1C5
:1027E0003003092B09D807EB870302EB4303C71813
:1027F000761CF3E758F8047B761C30786C280FD0F1
:1028000006DC4C2817D068280DD06A2814D104E0C3
:10281000742810D07A280FD10DE044F400140AE097
:1028200044F4801401E044F440147278824202D1EE
:1028300004F58014761C761C307866280BD013DCE7
:10284000582877D009DC002875D04528F6D04628CE
:10285000F4D047281AD193E118E0632835D06428D2
:1028600079D0652812D18BE1702873D008DC6728F5
:10287000F1D069286FD06E280DD06F2806D1ACE05A
:1028800073282CD0752874D0782853D052461799C5
:1028900090476D1C54E1C4F30250022809D003286C
:1028A0000DD0D8F8001004280DD00D6008F10408F0
:1028B00046E1D8F80010EA17C1E90052F6E7D8F867
:1028C00000100D80F2E70D70F0E718F8041B8DF88A
:1028D000001000208DF80100EB46012003E058F8BD
:1028E00004BB4FF0FF3061074FF0000102D40DE050
:1028F00009F101018946B9420FDA8145F8DB1BF87D
:1029000009100029F4D108E009F10101894681424A
:10291000FADB1BF809100029F6D103985346A0EB07
:10292000090721463846179A00F080FA284400EB40
:10293000090507E044E008E10DE01BF8010B5246F1
:1029400017999047B9F10109F7D253462146384605
:10295000179AF2E039E00A21C4F302524FF0000B5B
:102960000091022A06D058F8040BC117032A09D097
:102970000AE023E008F1070020F00702F2E8020174
:10298000904605E000B2C117042A01D140B2C11738
:10299000002906DA0A460021404261EB02012D229D
:1029A00002E0220504D52B228DF80420012203E049
:1029B000E20701D02022F7E7914657E00A2100E024
:1029C00010214FF0000B00910BE010214FF0000B95
:1029D00044F004040827009103E008204FF0000BA6
:1029E0000090C4F30252022A05D058F8040B0021CB
:1029F000032A08D008E008F1070020F00702F2E8F7
:102A00000201904603E080B2042A00D1C0B24FF028
:102A1000000922072AD53278702A07D0DDF800C0D5
:102A20008CF0100C5CEA0B0C05D00EE040228DF807
:102A30000420012208E050EA010306D030238DF87B
:102A400004308DF8052002229146009B83F0080394
:102A500053EA0B030AD150EA010201D1620705D5FE
:102A600030228DF804204FF001097F1E3278582A59
:102A700004D039A20C920CAA02920BE03BA2F9E717
:102A80005B46009AFDF7FEFB0C9B9B5C029A521E74
:102A90000292137050EA0102F2D1029804A9081AB6
:102AA00000F1200B600702D524F4803400E00127F8
:102AB0005F4502DDA7EB0B0000E0002000EB0B01FF
:102AC000009003984944401A0390E00306D453460B
:102AD0002146179A039800F0A9F90544002706E05B
:102AE00001A85246C05D179990476D1C7F1C4F4549
:102AF000F6DBE0030CD553462146179A039800F005
:102B000095F9054404E030205246179990476D1C12
:102B10000099481E00900029F5DC08E0029802990F
:102B200052460078491C0291179990476D1CBBF1E1
:102B30000001ABF1010BF1DC5BE100F065F905444C
:102B4000761C307800287FF40DAE19B02846BDE819
:102B5000F08F000009280100303132333435363728
:102B600038396162636465660000000030313233D9
:102B70003435363738394142434445460000000079
:102B8000600700D4062708F1070020F00700F0E8EE
:102B90000223804603F0004C5FEA0C0001D097A0AE
:102BA00009E0200501D596A005E0E00701D095A039
:102BB00001E0AFF24C001390307823F00043652819
:102BC0000CD006DC452809D046281DD047287FD1E7
:102BD0003BE0662818D067287AD136E00021112F13
:102BE00001DB112000E0781CCDE9000104A90CA84C
:102BF000FFF7EEFCDDE90D010C9A4FF0000B07F139
:102C00000109109200914EE04FF000400097CDE98D
:102C1000011004A90CA8FFF7DBFCDDE90D020C9BF9
:102C20000F994FF0000B91461093009211B9791C47
:102C300000EB0109B7EB090003D4C0F1FF3B07F13A
:102C40000109A9EB0700019042E0012F00DA0127FA
:102C50000021112F01DD112000E03846CDE90001EF
:102C600004A90CA8FFF7B4FCDDE90D010C9A009152
:102C70004FF0000BB946109221070FD4009A4A4535
:102C800003DA914601E0A9F10109B9F1010F05DD6F
:102C9000109AA9F10101515C3029F4D0B84202DA4E
:102CA00010F1040F03DA0121CDE9011010E0002832
:102CB00003DC8344A9EB000102E0411C494500DD2F
:102CC0008946A0EB0B00401C01904FF000400290A1
:102CD000200705D40198484502DB4FF0FF300190F2
:102CE00000208DF84B0002980DF14B07B0F1004F1A
:102CF00025D002200C902B200D90029800280CDA91
:102D0000404202902D200D9007E00A210298FDF725
:102D100021FB3031029007F8011D0C99481E0C90E0
:102D20000029F2DC02980028EFD1791E0D98087076
:102D3000307800F0200040F0450007F8020D11A89F
:102D4000C01BC01D02901398007800B1012000EB59
:102D50000901019801EBE071029801440398401ABF
:102D6000401E0390E00306D453462146179A039869
:102D700000F05CF805441398007818B15246179992
:102D800090476D1CE00323D553462146179A0398BC
:102D900000F04CF805441BE0BBF1000F07DB009886
:102DA000584504DD1098179910F80B0001E01799A9
:102DB00030205246904701980BF1010B401E05F15F
:102DC0000105019004D12E205246179990476D1CA1
:102DD000B9F10001A9F10109DEDC05E017F8010BEA
:102DE0005246179990476D1C0299481E029000297F
:102DF000F4DC53462146179A03989EE62D00000006
:102E00002B000000200000002DE9F04104460025C1
:102E10001E461746880404D405E039462020B047F2
:102E20006D1C641EF9D52846BDE8F0812DE9F041FE
:102E3000044600251E469046C80301D5302700E011
:102E40002027880404D505E041463846B0476D1C6C
:102E5000641EF9D52846BDE8F081000013B54FF097
:102E6000FF33012269460248FEF7BCFD00981CBDF5
:102E7000C0000020FDF770FEFFF786F8FEF714FE95
:102E8000FEF77AFEFEF7B0FEFEF792FE06A0FFF711
:102E90006FFBFFF7AAFAFEF74FFF00F02FF8FEF7DF
:102EA000F3FD00F03DF8FEE75553415254312070D8
:102EB00072696E7466207265616479210D0A000082
:102EC00010B5EFF3058111B16FF0050403E00024A4
:102ED00008B100F009FE204610BD000010B501F059
:102EE0002FFA38B1022804D003480068012800D026
:102EF000002010BD032010BD6C000020EFF3058002
:102F000010B16FF0050070470448016811B14FF02F
:102F1000FF30704701210160002070476C000020E5
:102F200010B5EFF3058010B16FF0050010BD084833
:102F30000168012902D04FF0FF3010BD054A002181
:102F400082F8141D0221016000F036FE002010BD41
:102F50006C0000200BE000E02DE9FF414FEA010387
:102F60004FF00005EFF30581039549BB40B380277F
:102F7000182100244AB3166806B1344696691EB17A
:102F80003146761E382E02D21679F60703D000207D
:102F900004B0BDE8F081566906B1B708D2F808C0A0
:102FA000BCF1000F0DD0D5685C2D18D312693AB171
:102FB00036B18DE806103A46214601F096F90390A5
:102FC0000DE0D6685EB912694AB903AACDE90012CC
:102FD000BAB2214601F05CF9012800D003950398AC
:102FE000D6E700002DE9F041134C0F460546E66890
:102FF0002068001D00F044FC681C07D137B121682F
:10300000BDE8F0410D48091D00F08ABC2068354438
:10301000B5424560216805D2A06BBDE8F041091DAD
:1030200000F066BC606B091D00F062FCA06A85427E
:1030300000D2A562BDE8F0811C000020D00600206F
:103040002DE9F041054600F077FC2D4CA068401CAE
:10305000A06020682B4F10B1606930B32BE0256071
:10306000A068012827D1002606EB860007EB800028
:1030700000F030FC761C382EF6D3234800F02AFCF2
:103080002148143000F026FC1F48283000F022FCB4
:103090001D483C3000F01EFC1B48503000F01AFC6C
:1030A000194860631430A06305E02068E96AC06ACB
:1030B000884200D82560606A401C60626864E86AE3
:1030C0002169884200D9206100EB800007EB800075
:1030D000291D00F025FC00F04FFC606900280CD091
:1030E0002068E96AC06A884207D208494FF08050D8
:1030F0000860BFF34F8FBFF36F8FBDE8F081000012
:103100001C000020200200208006002004ED00E0CA
:1031100038B500F011FC104C2068C8B90F4800F019
:10312000D9FB0E48143000F0D5FB0C48E060143099
:1031300020610A4B0020F03B009003F15002102167
:103140000A2000F047FE206010B105A100F096FCB7
:10315000BDE8384000F010BC58000020D407002023
:10316000546D72510000000030B4026C0B46002A0E
:103170000BD0C1681144C1608468A14201D30168C9
:10318000C16030BC1846FDF7AEB830BC70472DE9C1
:10319000F041856B174604460026026C82B1C7B128
:1031A000E068FDF7A0F8E168206C091AE160226888
:1031B000914202D2A168081AE060022F16D017E0EF
:1031C0002068A8B9A06801F033F906460020A06085
:1031D0000EE06068FDF787F8216C60680844606065
:1031E000A168884204D32068606001E005B16D1ECB
:1031F0006D1CA5633046BDE8F08110B5044690F81B
:10320000590058B101280CD002280FD0502080F36B
:103210001188BFF34F8FBFF36F8FFEE7206B00F075
:10322000BFFB2046BDE8104000F0BABB10BD000057
:1032300010484FF47051420706D0C01D0D4920F0D0
:103240000700411AC1F570510B4A00230144C2E93D
:1032500000030839183A21F0070111604B600B6038
:103260000B1AC0E9001393604FF0004053605061A7
:1032700070470000B40E002088000020144E154C4A
:10328000A6F29C474FF08058DFF84C9012E000BF48
:1032900000F052FBF068C568281D00F0F1FAA06844
:1032A000401EA0606068401E606000F065FB28461C
:1032B000FFF7A3FF60680028EAD138680128F9D930
:1032C000C9F80080BFF34F8FBFF36F8FF2E70000A4
:1032D000BC0600201C00002004ED00E070B51D4677
:1032E000049C51B1C4F80020C4E90F01012120461B
:1032F00000F0A4FD84F84C5070BD2460F4E7000099
:103300002DE9F05F8846DDE90B9415468346910070
:103310009A460A9EA522206BFCF7F7FF6FF0030187
:10332000206B01EB8501084420F00707780707D0E0
:10333000502080F31188BFF34F8FBFF36F8FFEE7EC
:103340000025B8F1000F0FD05FF00000221818F828
:10335000001082F8341018F8001011B1401C102829
:10336000F4D384F8435001E084F83450382E00D36D
:103370003726E662C4E91365201D00F0B6FA04F1B1
:10338000180000F0B2FA2461C6F138006462A0614E
:10339000656584F8585052465946384600F05AFA46
:1033A0002060B9F1000F01D0C9F80040BDE8F09FDE
:1033B00030B5114900E011460A688242FBD34B68E0
:1033C0005C18844203D1406818444860084643684A
:1033D0001C18944209D1084C183C2468A24209D018
:1033E00052681A4442600A6812680260814200D042
:1033F000086030BD0460F9E78800002070B5002443
:1034000041600B4D0061914206D8D11A8269914208
:1034100006D2011D286907E09A4203D2994201D3DE
:10342000012403E0011DE86800F062FA204670BD47
:103430005800002010B5044600F07EFAA06B28B1B9
:103440005FF0000400F098FA204610BD0124F9E76F
:1034500030B589B03C4D6EE00498002806DADDE90D
:103460000601059A90470498002864DB069C606971
:1034700010B1201D00F004FA03A800F0D7F80246AE
:1034800004980A2857D2DFE800F00505052D334AD5
:1034900005052D3394F8280040F0010084F8280039
:1034A0000599A069059B01442046FFF7A7FF68B373
:1034B000216A2046884794F8280040073BD5002021
:1034C00000900598A169002342181946204601F092
:1034D000B9F8D8B9502080F31188BFF34F8FBFF3EC
:1034E0006F8FFEE714F8280F20F00100207022E013
:1034F00094F8280040F0010084F828000598A061A5
:1035000028B1811813462046FFF778FF13E05020BA
:1035100080F31188BFF34F8FBFF36F8FFEE794F8EE
:103520002800810703D4204600F03AFA03E020F097
:10353000010084F82800002204A9286800F0D2FDC8
:10354000002889D109B030BD580000202DE9FC4188
:103550000F46054600F074FB01A800F067F804462A
:10356000019818B100F0DCFFBDE8FC81254EAFB139
:1035700030690068D0B30027291B3A46306800F054
:1035800091FA00F0CDFF0028EED11F494FF0805096
:103590000860BFF34F8FBFF36F8FE5E7A542EBD80D
:1035A00000F0BEFFF0682746C068C468201D00F028
:1035B00067F994F82800410719D5A0692B464119ED
:1035C0003A462046FFF71AFFA8B1002003460146FD
:1035D00000902A46204601F035F860B9502080F36B
:1035E0001188BFF34F8FBFF36F8FFEE707E020F026
:1035F000010084F82800216A20468847B4E70127A3
:10360000BAE700005800002004ED00E00648416BD6
:10361000096829B1416BC968C96849688162704706
:103620004FF0FF31FAE700001C00002070B505469E
:1036300000F094FE064E0446B068844203D200F0C7
:1036400009F8012000E0002028602046B46070BD29
:1036500058000020F8B5194D20E0C068C46806681D
:10366000201D00F00DF9216A2046884794F82800B3
:10367000400713D5A0693044B04206D92461606088
:10368000211DE86800F034F908E0002003460146F7
:1036900000903246204600F0D5FF38B1E868016856
:1036A0000029DAD12969C5E90310F8BD502080F35B
:1036B0001188BFF34F8FBFF36F8FFEE758000020D4
:1036C00008484068401C4FF0500080F3118804D037
:1036D000BFF34F8FBFF36F8FFEE7BFF34F8FBFF383
:1036E0006F8FFEE790000020074CE068016841B151
:1036F000C0680021D0F80000FFF728FFFFF7A8FE00
:10370000F3E701210020F7E7580000202DE9F04100
:10371000044600F011F994F9455004F1240609E03B
:10372000606A48B1304600F0C3FE08B100F00AFA02
:103730006D1E6DB2002DF3DC4FF0FF3684F845604E
:1037400000F01AF900F0F8F894F9445004F1100769
:1037500009E0206948B1384600F0AAFE08B100F03F
:10376000F1F96D1E6DB2002DF3DC84F84460BDE804
:10377000F04100F001B900002DE9F04105460027B5
:1037800000F05EFA324E306808B9FFF751FD7069FB
:1037900005424ED1C5B3083568070ED005F00700C5
:1037A000C0F108000544680707D0502080F3118855
:1037B000BFF34F8FBFF36F8FFEE72DB37068854265
:1037C00037D82348183001460C6801E020460C46E3
:1037D0006168A94202D221680029F7D131688C4280
:1037E00027D007682168016060680837411B1029ED
:1037F0000FD96019420708D0502080F31188BFF319
:103800004F8FBFF36F8FFEE713E041606560FFF7F6
:10381000CFFD61687068401A7060B268904200D253
:10382000B060706901430020C4E90001F068401CE9
:10383000F06000F075FE780707D0502080F3118803
:10384000BFF34F8FBFF36F8FFEE73846BDE8F081BF
:103850007000002010B5031F4FF080741C601B1F08
:1038600021F001011960191F044B0B6014390A6023
:10387000091F6FF0020244380A6010BDC13600080B
:10388000D0E9013201699A60D0E901235A604A689F
:10389000824201D182684A60002202610868401EAB
:1038A0000860086870470000034B036003F15C0088
:1038B0000860802010607047FC070020044B036004
:1038C00003F15C0008604FF48070106070470000E6
:1038D000580A002000F108014FF0FF32C0E9011240
:1038E000C1600161002101607047002101617047E2
:1038F00030B50B685A1C02D000F1080202E00269E0
:1039000004E02246546825689D42FAD953684B600A
:1039100099608A60516008610168491C016030BD8E
:1039200042684A6093688B6093685960916008614F
:103930000168491C01607047502080F31188BFF373
:103940004F8FBFF36F8F0A494868401C48600128B9
:103950000CD10848006810F0FF0F07D0502080F30A
:103960001188BFF34F8FBFF36F8FFEE770470000E2
:103970009000002004ED00E00849486828B1401E8E
:10398000486001D180F311887047502080F311887E
:10399000BFF34F8FBFF36F8FFEE700009000002052
:1039A00070B500282AD0164DA0F108046068696936
:1039B000084207D1502080F31188BFF34F8FBFF327
:1039C0006F8FFEE722683AB1502080F31188BFF371
:1039D0004F8FBFF36F8FFEE78843606000F030F9D0
:1039E00060686968084468602046FFF7E1FC286960
:1039F000401C2861BDE8704000F092BD70BD000021
:103A0000700000204FF0E020002101618161054934
:103A10004FF47A720968B1FBF2F1491E4161072146
:103A2000016170471800002010B5FCF715FC114922
:103A300010280ED300F1E02090F8F0030A789042AD
:103A400007D2502080F31188BFF34F8FBFF36F8FE1
:103A5000FEE709480068896800F4E060884207D9F9
:103A6000502080F31188BFF34F8FBFF36F8FFEE7B5
:103A700010BD0000900000200CED00E010B5084BD8
:103A8000002200BF53F832401CB1521C082AF9D35F
:103A900010BD43F8321003EBC201486010BD0000B6
:103AA000E001002070B515460E460446FFF744FFBE
:103AB00094F944100020491C01D184F8440094F981
:103AC0004510491C01D184F84500FFF755FFA06B54
:103AD00028B92A46314604F1240000F051F8204666
:103AE000BDE87040FFF712BE10B5020014D00F48B9
:103AF000006B38B1502080F31188BFF34F8FBFF3B4
:103B00006F8FFEE700F09CF800211046FFF76AFA7D
:103B100000F006FD002807D105494FF080500860ED
:103B2000BFF34F8FBFF36F8F10BD00001C0000204C
:103B300004ED00E002490A6A0260C968416070470A
:103B40001C00002001490120C86170471C000020B2
:103B500010B50C4650B1094909681831FFF7C8FE85
:103B60002046BDE810400121FFF73CBA502080F309
:103B70001188BFF34F8FBFF36F8FFEE71C0000204B
:103B800070B514460D4668B10A4909681831FFF747
:103B9000C7FE0CB14FF0FF3521462846BDE8704006
:103BA000FFF720BA502080F31188BFF34F8FBFF387
:103BB0006F8FFEE71C00002030B587B0002403940F
:103BC00005AA04A903A80494FFF76EFEDDE903012A
:103BD0000094CDE90110002315A11748059A00F0C3
:103BE00084FB164D0028E8621FD000F0FBFC012882
:103BF00009D0401C19D1502080F31188BFF34F8F9A
:103C0000BFF36F8FFEE7502080F31188BFF34F8F13
:103C1000BFF36F8F4FF0FF30A86201206861EC6046
:103C200007B0BDE8304000F045B807B030BD000037
:103C300049444C45000000007D3200081C00002073
:103C40000248016B491C0163704700001C00002002
:103C5000164810B5016B11B10121C16110BD0021E1
:103C6000C1610169124A01E0B9B1491E01EB81034A
:103C700052F82330002BF7D001EB810302EB8302D3
:103C800002F1080453685B685360A34201D15B688A
:103C90005360DA680260016110BD502080F3118822
:103CA000BFF34F8FBFF36F8FFEE700001C000020B3
:103CB000200200201CB537480168374A914207D1DD
:103CC000502080F31188BFF34F8FBFF36F8FFEE753
:103CD00000683149491E884207D1502080F311887D
:103CE000BFF34F8FBFF36F8FFEE72C490878019029
:103CF000FF20087008788DF800009DF800009DF8FE
:103D0000002000F0F000904207D0502080F311888E
:103D1000BFF34F8FBFF36F8FFEE79DF80000204C7D
:103D200000F0500020700720A06005E09DF8002002
:103D300052008DF80020401E9DF800201206F5D498
:103D4000A060032807D0502080F31188BFF34F8F65
:103D5000BFF36F8FFEE74FF44070A06001980870CA
:103D60000C482030016841F470010160016841F0A5
:103D700070410160FFF746FE00206060FCF734FAF6
:103D80000848016841F040410160FCF719FA002041
:103D90001CBD000000ED00E071C20F4100E400E036
:103DA0009000002034EF00E010B5502080F311881F
:103DB000BFF34F8FBFF36F8F00F0D6FA18B10449ED
:103DC0004FF080500860002080F3118810BD000083
:103DD00004ED00E038B5049D18B153B1CAB181B10A
:103DE00020E0502080F31188BFF34F8FBFF36F8F17
:103DF000FEE7502080F31188BFF34F8FBFF36F8F22
:103E0000FEE7502080F31188BFF34F8FBFF36F8F11
:103E1000FEE739B1502080F31188BFF34F8FBFF315
:103E20006F8FFEE750241C46012384F846302B4652
:103E30000094FFF753FA204638BD000070B50D46D8
:103E4000040025D0FFF778FDD4E90F20216802FB9C
:103E50000011A1600021A163216861600A46D4E9D4
:103E60000F01401E00FB0121E16021464FF0FF30B1
:103E700001F8440F487004F110008DB1FFF72AFDDE
:103E800004F12400FFF726FDFFF776FD012070BD49
:103E9000502080F31188BFF34F8FBFF36F8FFEE781
:103EA00021690029F0D000F003FB0028ECD0044980
:103EB0004FF080500860BFF34F8FBFF36F8FE3E781
:103EC00004ED00E02DE9FF4782B01D468A464FF021
:103ED0000008040003D0BAF1000F08D011E0502010
:103EE00080F31188BFF34F8FBFF36F8FFEE7206C15
:103EF00038B1502080F31188BFF34F8FBFF36F8F1D
:103F0000FEE7022D0AD1E06B012807D0502080F394
:103F10001188BFF34F8FBFF36F8FFEE700F010FAE9
:103F20003F4F4FF000094FF0805648B9049838B120
:103F3000502080F31188BFF34F8FBFF36F8FFEE7E0
:103F4000FFF7FAFCA06BE16B884207D3022D05D086
:103F50000498D0B1B8F1000F1AD01EE02A4651469D
:103F60002046FFF714F9616A19B104F1240000F04A
:103F70009FFA20B13E60BFF34F8FBFF36F8FFFF703
:103F8000FBFC012006B0BDE8F087FFF7F5FC22E05E
:103F90006846FFF7CFFD4FF00108FFF7EDFCFFF794
:103FA0004FFEFFF7C9FC94F94400401C01D184F88E
:103FB000449094F94500401C01D184F84590FFF7E6
:103FC000DBFC04A9684600F029F930B12046FFF770
:103FD0009DFB00F0A5FA0020D4E7FFF7ADFCA06B35
:103FE000E16B884213D1FFF7C7FC04F1100004997C
:103FF000FFF7AEFD2046FFF789FB00F091FA00289D
:104000009ED13E60BFF34F8FBFF36F8F98E7FFF7EE
:10401000B3FC2046FFF77AFB00F082FA90E700003D
:1040200004ED00E02DE9F0471F4690468946040064
:1040300003D0B9F1000F08D011E0502080F31188AF
:10404000BFF34F8FBFF36F8FFEE7206C38B1502066
:1040500080F31188BFF34F8FBFF36F8FFEE7022FFE
:104060000AD1E06B012807D0502080F31188BFF3FC
:104070004F8FBFF36F8FFEE7FFF7D6FC5020EFF3B3
:10408000118680F31188BFF34F8FBFF36F8FA06B42
:10409000E16B884206D3022F04D0002086F31188FA
:1040A000BDE8F08794F94550A06B3A464946204652
:1040B000FFF76DF8681C04D06D1C84F84550012092
:1040C000ECE7606A0028FAD004F1240000F0F0F96F
:1040D0000028F4D0B8F1000FF1D00121C8F8001089
:1040E000EDE700002DE9F747002683B08A4604007B
:1040F00003D0BAF1000F08D011E0502080F31188EE
:10410000BFF34F8FBFF36F8FFEE7206C38B15020A5
:1041100080F31188BFF34F8FBFF36F8FFEE700F07E
:104120000FF9DFF8F4804FF000094FF0805748B9DD
:10413000059838B1502080F31188BFF34F8FBFF33B
:104140006F8FFEE7FFF7F8FBA56BC5B15146204620
:10415000FFF70AF86D1EA563206950B104F1100045
:1041600000F0A6F928B1C8F80070BFF34F8FBFF375
:104170006F8FFFF701FC012006B0BDE8F0870598BE
:1041800008B11EB106E0FFF7F7FB27E06846FFF72E
:10419000D1FC0126FFF7F0FBFFF752FDFFF7CCFB48
:1041A00094F94400401C01D184F8449094F94500EE
:1041B000401C01D184F84590FFF7DEFB05A9684655
:1041C00000F02CF8002820460AD0FFF79FFA00F0F4
:1041D000A7F92046FFF72EF90028B3D00020CBE73F
:1041E000FFF728F990B104F124000599FFF7B0FC1E
:1041F0002046FFF78BFA00F093F90028A2D1C8F807
:104200000070BFF34F8FBFF36F8F9BE72046FFF720
:104210007DFA00F085F995E704ED00E02DE9F04125
:104220000C46050011D0C4B1FFF786FB174BDA68C6
:104230006E682068911B471C17D02F681B6A9F422D
:1042400019D0964217D8012410E0502080F311882D
:10425000BFF34F8FBFF36F8FFEE7502080F31188BD
:10426000BFF34F8FBFF36F8FFEE70024FFF784FB90
:104270002046BDE8F081884205D9401A20602846D2
:10428000FFF758FCF1E700202060DCE71C0000206D
:104290002DE9FF5F8346DDE90E87994616468A467B
:1042A0009000FFF769FA05001CD05C20FFF764FA64
:1042B000040014D00020256384F85900CDE90240A1
:1042C000CDE900874B46324651465846FFF718F86D
:1042D0002046FEF7B5FE012004B0BDE8F09F284659
:1042E000FFF75EFB4FF0FF30F6E7F0B585B0DDE994
:1042F0000B640A9DA6B1DCB15C27009726630226F9
:1043000084F85960002604AFCDE90246CDE9005794
:10431000FEF7F6FF2046FEF793FE049805B0F0BDC9
:10432000502080F31188BFF34F8FBFF36F8FFEE7EC
:10433000502080F31188BFF34F8FBFF36F8FFEE7DC
:104340000548416919B1006B18B100207047012080
:1043500070470220704700001C0000200148C06820
:10436000704700001C0000202DE9F0412E4C002772
:10437000206B28B1A069401CA0613846BDE8F081DF
:10438000E668761CE66013D1606B006838B1502097
:1043900080F31188BFF34F8FBFF36F8FFEE7606B21
:1043A000A16B6163A063206A401C2062FFF72EF9B5
:1043B000A06ADFF87880864209D3606B0068A0B1FC
:1043C000606BC068C5686868864211D2A0622068C8
:1043D000C06A00EB800158F82100012800D90127AC
:1043E000E0690028C9D00127C7E74FF0FF30EDE7AB
:1043F000281DFFF745FAA86A18B105F11800FFF764
:104400003FFAE86A2169884200D9206100EB800107
:1044100008EB8100291DFFF783FAE86A2168C96A61
:104420008842CAD30127C8E71C00002020020020D0
:1044300070B504004FF0000133D01B4D2868844252
:1044400007D0502080F31188BFF34F8FBFF36F8FD9
:10445000FEE7206D38B1401E2065E36CE26A9A42A7
:104460001FD040B11DE0502080F31188BFF34F8F63
:10447000BFF36F8FFEE7201DFFF702FAE06CE062EA
:10448000C0F13800A061E06A2969884200D928613A
:10449000064900EB800001EB8000211DFFF740FA88
:1044A0000121084670BD00001C00002020020020F1
:1044B00070B5C068C46854B104F118000646FFF72F
:1044C000DFF9144D286B50B13146134815E05020E8
:1044D00080F31188BFF34F8FBFF36F8FFEE7201D6E
:1044E000FFF7CEF9E06A2969884200D928610B49B3
:1044F00000EB800001EB8000211DFFF711FAE06A5C
:104500002968C96A884202D90120E86170BD00208B
:1045100070BD00001C000020A80600202002002022
:104520002DE9F0472C4D00242746286B38B1FFF7C2
:1045300003FA286B401E2863286B40B146E05020E8
:1045400080F31188BFF34F8FBFF36F8FFEE7A96829
:10455000224E0120D1B3A6F5916980463068E0B1C2
:10456000F068C46804F11800FFF78AF9201DFFF70E
:1045700087F9E06A2969884200D9286100EB800147
:1045800009EB8100211DFFF7CBF9E06A2968C96AB0
:104590008842E3D3C5F81C80E0E70CB1FFF736F89A
:1045A000AC694CB14FEA0806FFF7DEFE00B1EE61E0
:1045B000641EF9D10020A861E86938B108490127D3
:1045C00038070860BFF34F8FBFF36F8FFFF7D4F941
:1045D0003846BDE8F08700001C000020A806002037
:1045E00004ED00E010B586B0FEF792FD114C206896
:1045F000B8B100200390049005AA04A903A8FFF70E
:104600005DF9DDE9032102208DE8070000230AA1FE
:104610000B48059AFFF769FE606010B106B00120F3
:1046200010BD502080F31188BFF34F8FBFF36F8F01
:10463000FEE7000058000020546D7220537663009E
:10464000E93600082DE9FF411E46134602000A9D87
:104650004FF0000016D0144C2768002F0FD0CDE982
:1046600000130292062917DAFFF76AFE02284FF0BC
:1046700000030FD0002269462068FFF723FC04B036
:10468000BDE8F081502080F31188BFF34F8FBFF356
:104690006F8FFEE72A46EEE700233246694638462A
:1046A000FFF7C0FCEBE7000058000020E8460008D8
:1046B00000000000000000000000000000000000FA
:1046C00000020000180000000000000000000000D0
:1046D00000000000000000000102030406070809B2
:1046E000000000000102030464656661756C745487
:1046F00061736B001447000800000020A000000058
:10470000B0250008B4470008A0000020184E0000A3
:10471000C0250008000000000000000000000000AC
:104720000100000010000000000000000024F40060
:104730000000000000000000000000000000000079
:104740000000000000000000000000000000000069
:104750000000000000000000000000000000000059
:104760000000000000000000000000000000000049
:104770000000000000000000000000000000000039
:104780000000000000000000000000000000000029
:104790000000000000000000000000000000000019
:1047A0000000000000000000AAAAAAAA0000000061
:0447B0000000000005
:040000050800018965
:00000001FF
